:100000000C943D000C945A000C945A000C945A0025
:100010000C945A000C945A000C945A000C945A00F8
:100020000C945A000C945A000C945A000C945A00E8
:100030000C945A000C945A000C94E0000C945A0052
:100040000C945A000C945A000C945A000C945A00C8
:100050000C945A000C945A000C945A000C945A00B8
:100060000C945A000C945A00C706C406E706D5063D
:10007000D806DB06DE06E106E40611241FBECFEF3C
:10008000D8E0DEBFCDBF12E0A0E0B1E0EAEFFEE1D4
:1000900002C005900D92A437B107D9F722E0A4E77A
:1000A000B2E001C01D92AC3CB207E1F70E94EC0245
:1000B0000C947B0F0C940000789482E084BD93E054
:1000C00095BD80936E008AEF87BD08952FB7F89491
:1000D00060918102709182028091830290918402EA
:1000E0002FBF0895E4E6F0E080818F7D8083EEE607
:1000F000F0E08081826080830895EEE6F0E0808108
:100100008D7F8083E4E6F0E08081806280830895C3
:100110008FB7F8941092810210928202109283029B
:10012000109284028FBF0895CF92DF92EF92FF92D8
:100130002FB7F894C0908102D0908202E0908302A1
:10014000F0908402DC01CB018C0D9D1DAE1DBF1D06
:100150008093810290938202A0938302B0938402E1
:100160002FBFFF90EF90DF90CF9008958F929F92D6
:10017000AF92BF92CF92DF92EF92FF922FB7F89497
:10018000C0908102D0908202E0908302F0908402BD
:1001900046015701861A970AA80AB90A8092810275
:1001A00090928202A0928302B09284022FBFFF90AD
:1001B000EF90DF90CF90BF90AF909F908F90089579
:1001C0001F920F920FB60F9211240F931F932F932C
:1001D0003F934F935F936F937F938F939F93AF93CF
:1001E000BF938091810290918202A0918302B0918D
:1001F000840200917D0210917E0220917F02309155
:100200008002B901A8014D5F5F4F6F4F7F4F4D379F
:1002100051056105710520F40196A11DB11D09C0AC
:10022000B901A8014A575109610971090296A11D36
:10023000B11D40937D0250937E0260937F027093C4
:1002400080028093810290938202A0938302B093F4
:1002500084028091790290917A02A0917B02B09100
:100260007C020196A11DB11D8093790290937A02C0
:10027000A0937B02B0937C02BF91AF919F918F912D
:100280007F916F915F914F913F912F911F910F91AE
:100290000F900FBE0F901F9018958F929F92AF9264
:1002A000BF92CF92DF92EF92FF92BC01990F880B21
:1002B000990B0E9447094B015C0120E030E04AE7BE
:1002C00055E40E94FC096B017C0120E030E040E82D
:1002D0005FE30E949F0887FD24C020E03FEF4FE7C7
:1002E00057E4C701B6010E94F7091816ACF420E0E4
:1002F00030E040E251E4C501B4010E94FC090E94D3
:10030000160920E931E06115710581F0C9010197F5
:10031000F1F761507109F7CFC701B6010E941609C4
:1003200002C061E070E0CB010197F1F7FF90EF9020
:10033000DF90CF90BF90AF909F908F9008951092D4
:10034000C50087E68093C400E0ECF0E080818D7FFB
:10035000808386E08093C20088E18093C100089585
:10036000CF93C82F8A3019F48DE00E94B00180919C
:10037000C00085FFFCCFC093C600CF910895809147
:10038000C00087FFFCCF8091C60008958091C00017
:10039000881F8827881F08950F931F93CF93DF939B
:1003A000FC0101900020E9F7EC018F0101501109D7
:1003B000C017D10721F089910E94B001F9CFDF91D8
:1003C000CF911F910F9108950E94CC018AE00C9467
:1003D000B0010C94CC010C94B0018AE00C94B001F3
:1003E0000C94BF01AF92BF92CF92DF92EF92FF9237
:1003F0000F931F93CF93DF936115710581059105CD
:1004000059F16B017C01FF92EF92DF926F930EE046
:1004100011E01F930F931F921F921F921F920E9431
:10042000830C01965C010E94690AEC01FF92EF9235
:10043000DF92CF921F930F93BF92AF92DF93CF9330
:100440000E94830C8DB79EB744960FB6F8949EBF5A
:100450000FBE8DBFCE0102C08CE091E0DF91CF9145
:100460001F910F91FF90EF90DF90CF90BF90AF90D2
:1004700008950E945C0082E390E00E944D010E947A
:100480009F0182E390E00C944D014F925F926F9236
:100490007F929F92AF92BF92CF92DF92EF92FF92A4
:1004A0000F931F93CF93DF930E94390284E690E06D
:1004B0000E944D0182E191E00E94E401C4E0D0E09D
:1004C000412C512C32014394992493940E9466004C
:1004D0006B017C01C2010E944D010E9466006C15F7
:1004E0007D058E059F0528F4C61AD70AE80AF90A81
:1004F00008C09B01AC012C193D094E095F09690137
:100500007A01C414D504E604F70448F4D301C20107
:100510008C199D09AE09BF096C017D0104C0C41886
:10052000D508E608F708C301B2010E94F2018C0168
:10053000C701B6010E94F2015C0180E391E00E94D4
:10054000E901C8010E94E9018EE391E00E94E901FE
:10055000C5010E94E401C8010E94010BC701B60158
:100560000E9445096B017C01C301B2010E9445094B
:100570009B01AC01C701B6010E94A4082DEC3CEC24
:100580004CE45DE30E94F70918160CF4912CAAE0E4
:10059000B0E0A30192010E9485082B013C01219744
:1005A00009F094CF992019F08BE591E002C08BE619
:1005B00091E00E94E401892DDF91CF911F910F916D
:1005C000FF90EF90DF90CF90BF90AF909F907F9083
:1005D0006F905F904F9008950E945C000E94F3021C
:1005E0000E94FB02FDCF0E949F0184E690E00E94E2
:1005F0004D010C9405080C940D080F931F93CF9395
:10060000DF938C01EB016F5F7F4FFC018081918153
:100610000E948A0BF80191838083C80FD91F18822A
:10062000DF91CF911F910F910895CF92DF92EF92BA
:10063000FF920F931F93CF93DF93EC017B016A012D
:100640008B01020F131FC80101960E94690AFE0167
:10065000DC0140E050E04017510789F04E155F057E
:1006600010F4208106C0EA01CE19DF09CC0DDD1D92
:1006700028812C934F5F5F4F31961196ECCFFC0190
:10068000E40FF51F1082DF91CF911F910F91FF9022
:10069000EF90DF90CF900895AB01FB010190002017
:1006A000E9F731979F01261B370BFC0101900020D1
:1006B000E9F73197BF01681B790B0C941503EF9292
:1006C000FF920F931F93CF93DF93EC016115710598
:1006D000A9F0888199816130710591F08B01229692
:1006E000EE24E394F12C699179910E944C032FEF51
:1006F000E21AF20AE016F106B0F302C080E090E0E0
:10070000DF91CF911F910F91FF90EF900895CF92BD
:10071000DF92EF92FF920F931F93CF93DF93FC0131
:1007200001900020E9F73197E81BF90B9A0121505D
:100730003109E217F307F0F07A018B01EC016A014D
:10074000C61AD70AC60101960E94690AFE01E00F87
:10075000F11FDC01081B190B9D01200F311F2E1505
:100760003F0518F421912D93F7CFFC01EC0DFD1DF1
:10077000108202C080E090E0DF91CF911F910F9135
:10078000FF90EF90DF90CF9008950C948703AF9285
:10079000BF92CF92DF92EF92FF920F931F93CF936E
:1007A000DF936C01EB015A018A01061B170BC8018C
:1007B00001960E94690A7C01FC01D6018D919C91F1
:1007C000CA15DB0538F4DC01AC0FBD1F8C91819399
:1007D0002196F3CFF701E00FF11F10820E94010B69
:1007E000F601F182E082DF91CF911F910F91FF908E
:1007F000EF90DF90CF90BF90AF900895AF92BF92EF
:10080000CF92DF92EF92FF920F931F93CF93DF93DC
:10081000611571058105910559F16B017C01FF920C
:10082000EF92DF926F930EE011E01F930F931F92F0
:100830001F921F921F920E94830C01965C010E94DE
:10084000690AEC01FF92EF92DF92CF921F930F9310
:10085000BF92AF92DF93CF930E94830C8DB79EB768
:1008600044960FB6F8949EBF0FBE8DBFCE0102C056
:100870008CE091E0DF91CF911F910F91FF90EF906D
:10088000DF90CF90BF90AF900895EF92FF921F93AB
:10089000CF93DF937C01EB01142F80E090E00E9466
:1008A000FE030E94E401BE016E5F7F4FF70180816D
:1008B00091810E948A0BF70191838083209721F414
:1008C000FC011083118204C0C80FD91F188319823C
:1008D000DF91CF911F91FF90EF900895462FFC017B
:1008E000A081B181FD0101900020E9F73197BF019E
:1008F0006A1B7B0B0C9445042F923F924F925F92A0
:100900006F927F928F929F92AF92BF92CF92DF921F
:10091000EF92FF920F931F93CF93DF9300D000D0FD
:1009200000D0CDB7DEB79A8389832A013B010B83C0
:100930001C832D833E8380917402909175020196F1
:1009400090937502809374021CE1189FB001199F67
:10095000700D112480918502909186020E948A0B6D
:1009600090938602809385022090740230907502E5
:10097000129D9001139D300D112489010C51110914
:10098000080F191F0E946600E981FA81D8011196AB
:10099000FC93EE9312964D925D926D927C92159718
:1009A00091012150310917963C932E931697F80127
:1009B00060877187828793878B819C81AD81BE819F
:1009C00084879587A687B787C08AD18AE28AF38A07
:1009D000148A158A168A178A808E918EA28EB38EFB
:1009E00026960FB6F894DEBF0FBECDBFDF91CF9134
:1009F0001F910F91FF90EF90DF90CF90BF90AF903D
:100A00009F908F907F906F905F904F903F902F902E
:100A10000895EF92FF920F931F93CF93DF93C091AE
:100A20007402D0917502C230D10548F4109286024A
:100A30001092850210927502109274024CC07C01D3
:100A40002CE12C9FC0012D9F900D11244C970E94EA
:100A5000690A8C01AC0120E030E080E090E0219751
:100A60008C179D07B0F4E0918502F0918602E20FA9
:100A7000F31F8E159F050CF07C966CE1DA01019056
:100A80000D926A95E1F70196245E3F4F445E5F4FF9
:100A9000E7CFD0937502C09374028CE1282F2C9F6E
:100AA000C0012D9F900D11240E94690A9093860227
:100AB0008093850220E030E04CE1F801DC010190F8
:100AC0000D924A95E1F72F5F3F4F045E1F4F4C9602
:100AD0002C173D0789F7DF91CF911F910F91FF9060
:100AE000EF9008952F923F924F925F926F927F9274
:100AF0008F929F92AF92BF92CF92DF92EF92FF922E
:100B00000F931F93CF93DF93CDB7DEB7AA970FB69E
:100B1000F894DEBF0FBECDBF809185029091860212
:100B2000892B59F08091740290917502892B29F0DC
:100B3000212C312C00E010E0AEC0AA960FB6F8943C
:100B4000DEBF0FBECDBFDF91CF911F910F91FF9000
:100B5000EF90DF90CF90BF90AF909F908F907F905D
:100B60006F905F904F903F902F900C940007809172
:100B7000850290918602820D931D2CE1FC01DE011D
:100B8000119601900D922A95E1F7DC010D90BC9130
:100B9000A02DBE8FAD8FFC0180849184A284B3848C
:100BA000C484D584E684F784CBA2DCA2EDA2FEA2A5
:100BB000C088D188E288F388CF8ED8A2E9A2FAA2B1
:100BC0004488558866887788C08CD18CE28CF38CF9
:100BD000CFA2D8A6E9A6FAA60E9466004114510445
:100BE0006104710409F060C0DC01CB01CBA0DCA082
:100BF000EDA0FEA08C199D09AE09BF0988159905C5
:100C0000AA05BB0508F492C00E9400076B817C8195
:100C10008D819E81ED8DFE8D099581116CC00E94A4
:100C200000070E946600A0918502B0918602A20D85
:100C3000B31D109759F1ED8CFE8CFA82E9828986FA
:100C40009A86AB86BC86CBA0DCA0EDA0FEA0CD86AC
:100C5000DE86EF86F88ACF8CD8A0E9A0FAA0C98AF0
:100C6000DA8AEB8AFC8A6D8B7E8B8F8B988FCFA074
:100C7000D8A4E9A4FAA4C98EDA8EEB8EFC8E8CE19E
:100C8000FE01319601900D928A95E1F70F5F1F4F9B
:100C90002CE1220E311C809174029091750208178C
:100CA000190708F464CF49C09B01AC01CF8CD8A0D0
:100CB000E9A0FAA02C193D094E095F092415350554
:100CC0004605570508F0A0CF2FA138A549A55AA57C
:100CD000280D391D4A1D5B1D621773078407950790
:100CE00048F1CFA0D8A4E9A4FAA4CD28CE28CF28D3
:100CF00009F10E940007C801AA960FB6F894DEBF5A
:100D00000FBECDBFDF91CF911F910F91FF90EF905C
:100D1000DF90CF90BF90AF909F908F907F906F901B
:100D20005F904F903F902F900C94090560E070E029
:100D3000CB0179CFC301B20176CFAA960FB6F89452
:100D4000DEBF0FBECDBFDF91CF911F910F91FF90FE
:100D5000EF90DF90CF90BF90AF909F908F907F905B
:100D60006F905F904F903F902F9008951F93CF9377
:100D7000DF93182FEB0190E08930910528F4FC01F6
:100D8000EC5CFF4F0C947F0883E792E022C00E9446
:100D900066000E94FE03BC018CEB91E00E944C03B4
:100DA0006EEB71E00E944C0314C084E891E011C026
:100DB0008CE891E00EC084E991E00BC08DE991E0F0
:100DC00008C089EA91E005C083EB91E002C08BE79F
:100DD00091E0BE010E944C03EC01123029F40E9404
:100DE0000007882349F002C0123030F4CE01DF91B1
:100DF000CF911F910C94CC01DF91CF911F91089559
:100E00008091760208958093760208950E94730C73
:100E100021E0892B09F020E0822F0895BC01809108
:100E20000A0190910B010E944C030C94E401FC0117
:100E3000A081B181FD0101900020E9F731979F0168
:100E40002A1B3B0BFD0160E070E06217730731F075
:100E50004191403229F46F5F7F4FF7CF6FEF7FEF03
:100E6000A90141505109FD01E20FF31F22912032E7
:100E700021F04F5F5F4F0C94C70341505109F6CFEB
:100E80004F925F926F927F928F929F92AF92BF929A
:100E9000CF92DF92EF92FF920F931F93CF93DF9346
:100EA0006C01EB017A014C01612C712CA12CB12C4D
:100EB000512C44244394F60101900020E9F7319726
:100EC0008F010C191D096016710608F068C0F40145
:100ED00081914F01803221F0823291F554245BC020
:100EE00051102EC06114710459F1F7018081918174
:100EF0009C012F5F3F4F318320830296232B31F0DB
:100F0000BC01888199810E948A0B02C00E94690AF3
:100F100099838883F7010081118101501048000FE7
:100F2000111F0C0F1D1FA301B501C6010E948703ED
:100F3000F801918380835301FFEFAF1ABF0A2BC0E2
:100F4000C80102976816790631F5F7018081918111
:100F50009C012F5F3F4F318320830296232B31F07A
:100F6000BC01888199810E948A0B02C00E94690A93
:100F700099838883F7018081918181509048880FFF
:100F8000991FC80FD91FA801B501C6010E94870388
:100F90009983888304C0FFEF6F1A7F0A8CCFDF919B
:100FA000CF911F910F91FF90EF90DF90CF90BF9066
:100FB000AF909F908F907F906F905F904F9008952B
:100FC000CF93DF9300D0CDB7DEB70E94500C9A8349
:100FD0008983CE0101960E94170763EC71E0898135
:100FE0009A810E940607882339F088EC91E00E94DC
:100FF000E40185EE91E002C086E292E00E94E40105
:101000000F900F90DF91CF9108950E94ED01809194
:101010000A0190910B010C94E9010E94C6018823FA
:1010200009F46CC00E94F0018A3089F130F48330F9
:1010300009F464C0883031F04AC08D3041F18F37F7
:1010400009F045C08091770290917802892BE9F0F0
:1010500088E00E94EB0180E20E94EB0188E00E94A0
:10106000EB01E0917702F09178023197F0937802EA
:10107000E0937702E957FD4FCF01875892408034C3
:10108000910510F41192F8CF089587E035C0809152
:10109000770290917802892B19F40E94ED010DC01E
:1010A0000E94ED0187E892E00E94E007E7E8F2E0A5
:1010B000119282E0E73CF807D9F71092780210927B
:1010C000770280910A0190910B010C94E901209123
:1010D0007702309178022034310580F4F901E95724
:1010E000FD4F80832F5F3F4FF901E957FD4F10827D
:1010F00030937802209377020C94EB010895EE0F61
:10110000FF1F0590F491E02D09940E949008A59F7F
:10111000900DB49F900DA49F800D911D11240895F2
:10112000A29FB001B39FC001A39F700D811D112428
:10113000911DB29F700D811D1124911D08950E9473
:10114000820908F481E008950E94B8080C94BD0952
:101150000E94B60958F00E94AF0940F029F45F3FA1
:1011600029F00C94A60951110C94F1090C94AC09C6
:101170000E94CE0968F39923B1F3552391F3951B8F
:10118000550BBB27AA2762177307840738F09F5FA8
:101190005F4F220F331F441FAA1FA9F335D00E2E15
:1011A0003AF0E0E832D091505040E695001CCAF782
:1011B0002BD0FE2F29D0660F771F881FBB1F261745
:1011C00037074807AB07B0E809F0BB0B802DBF011C
:1011D000FF2793585F4F3AF09E3F510578F00C94EB
:1011E000A6090C94F1095F3FE4F3983ED4F3869589
:1011F00077956795B795F7959F5FC9F7880F911D0C
:101200009695879597F90895E1E0660F771F881FF7
:10121000BB1F621773078407BA0720F0621B730BAA
:10122000840BBA0BEE1F88F7E09508950E94D6094B
:1012300088F09F5798F0B92F9927B751B0F0E1F097
:10124000660F771F881F991F1AF0BA95C9F714C047
:10125000B13091F00E94F009B1E008950C94F009CA
:10126000672F782F8827B85F39F0B93FCCF3869580
:1012700077956795B395D9F73EF4909580957095DD
:1012800061957F4F8F4F9F4F0895E89409C097FB5A
:101290003EF490958095709561957F4F8F4F9F4F4D
:1012A0009923A9F0F92F96E9BB279395F695879591
:1012B00077956795B795F111F8CFFAF4BB0F11F454
:1012C00060FF1BC06F5F7F4F8F4F9F4F16C08823FB
:1012D00011F096E911C0772321F09EE8872F762F31
:1012E00005C0662371F096E8862F70E060E02AF072
:1012F0009A95660F771F881FDAF7880F969587955E
:1013000097F90895990F0008550FAA0BE0E8FEEF32
:1013100016161706E807F907C0F012161306E407B9
:10132000F50798F0621B730B840B950B39F40A26B2
:1013300061F0232B242B252B21F408950A2609F490
:10134000A140A6958FEF811D811D089597F99F6794
:1013500080E870E060E008959FEF80EC089500243D
:101360000A941616170618060906089500240A940A
:1013700012161306140605060895092E0394000C90
:1013800011F4882352F0BB0F40F4BF2B11F460FF1F
:1013900004C06F5F7F4F8F4F9F4F089557FD905848
:1013A000440F551F59F05F3F71F04795880F97FB29
:1013B000991F61F09F3F79F08795089512161306E3
:1013C0001406551FF2CF4695F1DF08C01616170612
:1013D0001806991FF1CF8695710561050894089547
:1013E000E894BB2766277727CB0197F908950E94D9
:1013F000820908F48FEF08950E940F0A0C94BD092A
:101400000E94AF0938F00E94B60920F0952311F030
:101410000C94A6090C94AC0911240C94F1090E94B7
:10142000CE0970F3959FC1F3950F50E0551F629F51
:10143000F001729FBB27F00DB11D639FAA27F00D2D
:10144000B11DAA1F649F6627B00DA11D661F829F54
:101450002227B00DA11D621F739FB00DA11D621F39
:10146000839FA00D611D221F749F3327A00D611D56
:10147000231F849F600D211D822F762F6A2F112438
:101480009F5750409AF0F1F088234AF0EE0FFF1F6B
:10149000BB1F661F771F881F91505040A9F79E3FC2
:1014A000510580F00C94A6090C94F1095F3FE4F318
:1014B000983ED4F3869577956795B795F795E79518
:1014C0009F5FC1F7FE2B880F911D9695879597F921
:1014D00008950F931F93CF93DF938230910510F4FB
:1014E00082E090E0E091CA02F091CB0220E030E08F
:1014F000A0E0B0E0309719F1408151810281138161
:1015000048175907C8F08417950769F4109731F008
:1015100012960C93129713961C9327C00093CA023D
:101520001093CB0222C02115310519F04217530741
:1015300018F49A01BD01EF01DF01F801DBCF21159D
:101540003105F9F0281B390B2430310580F48A81EC
:101550009B816115710521F0FB019383828304C097
:101560009093CB028093CA02FE01329644C0FE01E2
:10157000E20FF31F8193919322503109398328831D
:101580003AC02091C8023091C902232B41F4209126
:101590000201309103013093C9022093C8022091C7
:1015A0000001309101012115310541F42DB73EB7FD
:1015B0004091040150910501241B350BE091C802B4
:1015C000F091C902E217F307A0F42E1B3F0B281776
:1015D000390778F0AC014E5F5F4F2417350748F0AC
:1015E0004E0F5F1F5093C9024093C802819391939D
:1015F00002C0E0E0F0E0CF01DF91CF911F910F91A9
:101600000895CF93DF93009709F481C0FC013297CE
:1016100013821282A091CA02B091CB02109781F47A
:1016200020813181820F931F2091C8023091C9021D
:101630002817390751F5F093C902E093C80267C033
:10164000ED0120E030E0CE17DF0740F44A815B81F6
:101650009E0141155105F1F0EA01F5CFD383C28314
:1016600040815181840F951FC817D90759F488818B
:101670009981840F951F0296918380838A819B8133
:10168000938382832115310529F4F093CB02E093F3
:10169000CA023DC0E901FB83EA8349915991C40F15
:1016A000D51FEC17FD0761F480819181840F951F90
:1016B0000296E90199838883828193819B838A833F
:1016C000E0E0F0E012968D919C911397009719F04D
:1016D000FD01DC01F7CF8D919C9111979D012E5F4B
:1016E0003F4F820F931F2091C8023091C9022817E3
:1016F000390769F4309729F41092CB021092CA028C
:1017000002C013821282B093C902A093C802DF9173
:10171000CF910895A0E0B0E0E0E9FBE00C94480F21
:10172000EC01009721F4CB010E94690AB4C0FC01CE
:10173000E60FF71F9C0122503109E217F30708F466
:10174000A8C0D9010D911C91119706171707B0F089
:101750000530110508F49BC0C80104978617970748
:1017600008F495C002501109061B170B0193119341
:101770006D937C93CF010E94010B89C05B01A01A7D
:10178000B10A4C01800E911EA091CA02B091CB0209
:10179000612C712CE12CF12C109709F446C08D912D
:1017A0009C911197A815B905B1F56C0142E0C40EE2
:1017B000D11CCA14DB0478F14C018A189B0864011F
:1017C00042E0C40ED11C1296BC9012971396AC91B5
:1017D000B5E0CB16D10440F0B282A383918280821F
:1017E000D9016D937C9309C00E5F1F4F800F911F2D
:1017F000F90191838083EB2DFA2FE114F10431F08C
:10180000D7011396FC93EE93129741C0F093CB024D
:10181000E093CA023CC06816790608F43C017D01D9
:1018200012960D90BC91A02DB7CF8091C8029091D7
:10183000C90288169906E1F466167706C8F4809105
:10184000000190910101009741F48DB79EB740913E
:10185000040150910501841B950BE817F907C8F4A2
:10186000F093C902E093C802F901718360830FC04D
:10187000CB010E94690A7C01009759F0A801BE01C2
:101880000E946A0CCE010E94010BC70104C0CE0168
:1018900002C080E090E0CDB7DEB7EEE00C94640FBC
:1018A0000F931F93CF93DF938C01FC0101900020D5
:1018B000E9F7CF01801B910B0E94690AEC010097A8
:1018C00019F0B8010E947C0CCE01DF91CF911F91DD
:1018D0000F910895FB01DC0102C001900D9241506F
:1018E0005040D8F70895FB01DC018D9101908019DB
:1018F0000110D9F3990B0895FB01DC0101900D92C1
:101900000020E1F70895AEE0B0E0E9E8FCE00C94D7
:10191000520F0D891E898F89988D26E02C831A839A
:10192000098397FF02C080E090E801979E838D8332
:10193000AE01455E5F4F698D7A8DCE0101960E94A2
:10194000B30C4D815E8157FD0AC02F813885421747
:1019500053070CF49A01F801E20FF31F10822E9640
:10196000E4E00C946E0FABE0B0E0E9EBFCE00C942B
:10197000440F6C017B018A01FC011782168283816E
:1019800081FFCCC1CE0101963C01F6019381F701A4
:1019900093FD859193FF81917F01882309F4BAC15A
:1019A000853239F493FD859193FF81917F018532D2
:1019B00029F4B60190E00E94AA0EE7CF912C212CC9
:1019C000312CFFE1F315D8F08B3279F038F4803206
:1019D00079F08332A1F4232D20611DC08D3261F096
:1019E000803369F4232D216016C0832D8260382E48
:1019F000E32DE4603E2E2AC0F32DF8601DC037FCB5
:101A00002DC020ED280F2A3040F08E32B9F436FC7C
:101A100081C1232D2064322E19C036FE06C08AE013
:101A2000989E200D1124922E11C0EAE02E9E200DCA
:101A30001124222EF32DF0623F2E08C08C3621F4A3
:101A4000832D8068382E02C0883641F4F70193FD5B
:101A5000859193FF81917F018111B3CF982F9F7D55
:101A60009554933028F40C5F1F4F9FE399830DC06A
:101A7000833631F0833771F0833509F059C021C0C6
:101A8000F801808189830E5F1F4F88248394912CF5
:101A9000530113C02801F2E04F0E511CF801A08041
:101AA000B18036FE03C0692D70E002C06FEF7FEF9A
:101AB000C5010E949F0E4C018201F32DFF773F2E3E
:101AC00016C0280122E0420E511CF801A080B1800E
:101AD00036FE03C0692D70E002C06FEF7FEFC501D5
:101AE0000E94940E4C01F32DF0683F2E820133FCCE
:101AF0001BC0822D90E088169906B0F4B60180E2F2
:101B000090E00E94AA0E2A94F4CFF50137FC85914B
:101B100037FE81915F01B60190E00E94AA0E21106C
:101B20002A9421E0821A91088114910471F7E8C087
:101B3000843611F0893641F5F80137FE07C060811F
:101B40007181828193810C5F1F4F08C06081718118
:101B5000072E000C880B990B0E5F1F4FF32DFF769D
:101B60003F2E97FF09C090958095709561957F4FA6
:101B70008F4F9F4FF0683F2E2AE030E0A3010E9474
:101B8000E60E882E861845C0853731F4232D2F7E2A
:101B9000B22E2AE030E025C0932D997FB92E8F36E2
:101BA000C1F018F4883579F0B5C0803719F088375E
:101BB00021F0B0C0E92FE061BE2EB4FE0DC0FB2DB8
:101BC000F460BF2E09C034FE0AC0292F2660B22E51
:101BD00006C028E030E005C020E130E002C020E18E
:101BE00032E0F801B7FE07C0608171818281938184
:101BF0000C5F1F4F06C06081718180E090E00E5F36
:101C00001F4FA3010E94E60E882E8618FB2DFF773A
:101C10003F2E36FE0DC0232D2E7FA22E891458F4A0
:101C200034FE0BC032FC09C0832D8E7EA82E05C069
:101C3000B82CA32C03C0B82C01C0B92CA4FE0FC033
:101C4000FE01E80DF11D8081803321F49A2D997EEB
:101C5000A92E09C0A2FE06C0B394B39404C08A2D75
:101C6000867809F0B394A3FC11C0A0FE06C0B2149C
:101C700088F4280C922C9B180EC0B21460F4B601A4
:101C800080E290E00E94AA0EB394F7CFB21418F449
:101C90002B1802C0982C212CA4FE10C0B60180E3A2
:101CA00090E00E94AA0EA2FE17C0A1FC03C088E724
:101CB00090E002C088E590E0B6010CC08A2D8678DD
:101CC00059F0A1FE02C08BE201C080E2A7FC8DE2C8
:101CD000B60190E00E94AA0E891438F4B60180E3A0
:101CE00090E00E94AA0E9A94F7CF8A94F301E80D2F
:101CF000F11D8081B60190E00E94AA0E8110F5CFFF
:101D0000222009F442CEB60180E290E00E94AA0EA1
:101D10002A94F6CFF6018681978102C08FEF9FEF5C
:101D20002B96E2E10C94600FFC010590615070402D
:101D30000110D8F7809590958E0F9F1F0895FC0194
:101D40006150704001900110D8F7809590958E0FEA
:101D50009F1F08950F931F93CF93DF93FB01238160
:101D600021FD03C08FEF9FEF2CC022FF16C04681DC
:101D70005781248135814217530744F4A081B181F2
:101D80009D012F5F3F4F318320838C9326813781C4
:101D90002F5F3F4F3783268314C08B01EC01FB017B
:101DA0000084F185E02D0995892BE1F6D80116967E
:101DB0008D919C911797019617969C938E931697E9
:101DC000CE01DF91CF911F910F910895FA01AA27BB
:101DD000283051F1203181F1E8946F936E7F6E5F6E
:101DE0007F4F8F4F9F4FAF4FB1E03ED0B4E03CD01C
:101DF000670F781F891F9A1FA11D680F791F8A1FFF
:101E0000911DA11D6A0F711D811D911DA11D20D065
:101E100009F468943F912AE0269F11243019305D1F
:101E20003193DEF6CF010895462F4770405D419310
:101E3000B3E00FD0C9F7F6CF462F4F70405D4A335D
:101E400018F0495D31FD4052419302D0A9F7EACF25
:101E5000B4E0A6959795879577956795BA95C9F754
:101E600000976105710508959B01AC010A2E069447
:101E70005795479537952795BA95C9F7620F731F00
:101E8000841F951FA01D08952F923F924F925F923D
:101E90006F927F928F929F92AF92BF92CF92DF927A
:101EA000EF92FF920F931F93CF93DF93CDB7DEB7DF
:101EB000CA1BDB0B0FB6F894DEBF0FBECDBF099473
:101EC0002A88398848885F846E847D848C849B84CA
:101ED000AA84B984C884DF80EE80FD800C811B81D8
:101EE000AA81B981CE0FD11D0FB6F894DEBF0FBE07
:0A1EF000CDBFED010895F894FFCF77
:101EFA000000CC02200054025F0268023000256C08
:101F0A007500496E6974696174696E672048414C4D
:101F1A002073797374656D20746573742E2E2E0088
:101F2A0044656C6179207769746820743D006D732B
:101F3A00207969656C6465642074696D65206D69D2
:101F4A00736D61746368206F6620005465737469E9
:101F5A006E67207061737365642E005465737469CB
:101F6A006E67206661696C65642E005B4445425564
:101F7A00475D20005B494E464F5D20005B5741524A
:101F8A004E5D20005B4552524F525D20005B43522A
:101F9A0049544943414C5D20005B534556455245DF
:101FAA005D20005B464154414C5D20005B006D732F
:101FBA005D200068656C70003C2D2D2D20417661F6
:101FCA00696C61626C6520636F6D6D616E6473200C
:101FDA002D2D2D3E0068656C7020202020202020A9
:101FEA0020202020202020202020202020202020E7
:101FFA0020202020202020202020202020202020D7
:10200A0020202020202D2073686F77207468697340
:10201A00207061676500556E6B6E6F776E20636F17
:10202A006D6D616E642E2054797065202768656C29
:10203A00702720666F7220612068656C702070615D
:10204A0067652E005B5741544348444F475D005B28
:10205A00524553454E445D005B53595354454D5DBB
:04206A00203E2000F4
:00000001FF
