:100000000C943D000C945A000C945A000C945A0025
:100010000C945A000C945A000C945A000C945A00F8
:100020000C945A000C945A000C945A000C945A00E8
:100030000C945A000C945A000C94E0000C945A0052
:100040000C945A000C945A000C945A000C945A00C8
:100050000C945A000C945A000C945A000C945A00B8
:100060000C945A000C945A002D062A064D063B06A5
:100070003E064106440647064A0611241FBECFEF3E
:10008000D8E0DEBFCDBF12E0A0E0B1E0EEECFDE1D4
:1000900002C005900D92A637B107D9F722E0A6E776
:1000A000B2E001C01D92AD38B207E1F70E94EC0248
:1000B0000C94E50E0C940000789482E084BD93E0EB
:1000C00095BD80936E008AEF87BD08952FB7F89491
:1000D00060918302709184028091850290918602E2
:1000E0002FBF0895E4E6F0E080818F7D8083EEE607
:1000F000F0E08081826080830895EEE6F0E0808108
:100100008D7F8083E4E6F0E08081806280830895C3
:100110008FB7F89410928302109284021092850295
:10012000109286028FBF0895CF92DF92EF92FF92D6
:100130002FB7F894C0908302D0908402E09085029B
:10014000F0908602DC01CB018C0D9D1DAE1DBF1D04
:100150008093830290938402A0938502B0938602D9
:100160002FBFFF90EF90DF90CF9008958F929F92D6
:10017000AF92BF92CF92DF92EF92FF922FB7F89497
:10018000C0908302D0908402E0908502F0908602B5
:1001900046015701861A970AA80AB90A8092830273
:1001A00090928402A0928502B09286022FBFFF90A7
:1001B000EF90DF90CF90BF90AF909F908F90089579
:1001C0001F920F920FB60F9211240F931F932F932C
:1001D0003F934F935F936F937F938F939F93AF93CF
:1001E000BF938091830290918402A0918502B09187
:1001F000860200917F02109180022091810230914D
:100200008202B901A8014D5F5F4F6F4F7F4F4D379D
:1002100051056105710520F40196A11DB11D09C0AC
:10022000B901A8014A575109610971090296A11D36
:10023000B11D40937F0250938002609381027093BE
:1002400082028093830290938402A0938502B093EC
:10025000860280917B0290917C02A0917D02B091F8
:100260007E020196A11DB11D80937B0290937C02BA
:10027000A0937D02B0937E02BF91AF919F918F9129
:100280007F916F915F914F913F912F911F910F91AE
:100290000F900FBE0F901F9018958F929F92AF9264
:1002A000BF92CF92DF92EF92FF92BC01990F880B21
:1002B000990B0E94D2084B015C0120E030E04AE734
:1002C00055E40E9487096B017C0120E030E040E8A2
:1002D0005FE30E942A0887FD24C020E03FEF4FE73C
:1002E00057E4C701B6010E9482091816ACF420E059
:1002F00030E040E251E4C501B4010E9487090E9448
:10030000A10820E931E06115710581F0C90101976B
:10031000F1F761507109F7CFC701B6010E94A1083A
:1003200002C061E070E0CB010197F1F7FF90EF9020
:10033000DF90CF90BF90AF909F908F9008951092D4
:10034000C50087E68093C400E0ECF0E080818D7FFB
:10035000808386E08093C20088E18093C100089585
:10036000CF93C82F8A3019F48DE00E94B00180919C
:10037000C00085FFFCCFC093C600CF910895809147
:10038000C00087FFFCCF8091C60008958091C00017
:10039000881F8827881F08950F931F93CF93DF939B
:1003A000FC0101900020E9F7EC018F0101501109D7
:1003B000C017D10721F089910E94B001F9CFDF91D8
:1003C000CF911F910F9108950E94CC018AE00C9467
:1003D000B0010C94CC010C94B0018AE00C94B001F3
:1003E0000C94BF01AF92BF92CF92DF92EF92FF9237
:1003F0000F931F93CF93DF936115710581059105CD
:1004000059F16B017C01FF92EF92DF926F9300E153
:1004100011E01F930F931F921F921F921F920E9431
:10042000ED0B01965C010E94F409EC01FF92EF9242
:10043000DF92CF921F930F93BF92AF92DF93CF9330
:100440000E94ED0B8DB79EB744960FB6F8949EBFF1
:100450000FBE8DBFCE0102C08EE091E0DF91CF9143
:100460001F910F91FF90EF90DF90CF90BF90AF90D2
:1004700008950E945C0082E390E00E944D010E947A
:100480009F0182E390E00C944D014F925F926F9236
:100490007F929F92AF92BF92CF92DF92EF92FF92A4
:1004A0000F931F93CF93DF930E94390284E690E06D
:1004B0000E944D0184E191E00E94E401C4E0D0E09B
:1004C000412C512C32014394992493940E9466004C
:1004D0006B017C01C2010E944D010E9466006C15F7
:1004E0007D058E059F0528F4C61AD70AE80AF90A81
:1004F00008C09B01AC012C193D094E095F09690137
:100500007A01C414D504E604F70448F4D301C20107
:100510008C199D09AE09BF096C017D0104C0C41886
:10052000D508E608F708C301B2010E94F2018C0168
:10053000C701B6010E94F2015C0182E391E00E94D2
:10054000E901C8010E94E90180E491E00E94E9010B
:10055000C5010E94E401C8010E948C0AC701B601CE
:100560000E94D0086B017C01C301B2010E94D00837
:100570009B01AC01C701B6010E942F082DEC3CEC99
:100580004CE45DE30E94820918160CF4912CAAE059
:10059000B0E0A30192010E9410082B013C012197B9
:1005A00009F094CF992019F08DE591E002C08DE615
:1005B00091E00E94E401892DDF91CF911F910F916D
:1005C000FF90EF90DF90CF90BF90AF909F907F9083
:1005D0006F905F904F9008950E945C000E94F3021C
:1005E0000E94FB02FDCF0E949F0184E690E00E94E2
:1005F0004D010C94AD070C94B507CF92DF92EF92AA
:10060000FF920F931F93CF93DF93EC017B01FC01CB
:1006100001900020E9F731978F01081B190BFB01AE
:1006200001900020E9F73197E61BF70B6801CE0E29
:10063000DF1EC60101960E94F409FC0120E030E0B3
:100640002C153D0589F02017310710F4488106C0AC
:10065000D901A01BB10BAE0DBF1D4C9140832F5F84
:100660003F4F21963196ECCFDF91CF911F910F91A3
:10067000FF90EF90DF90CF900895EF92FF920F934D
:100680001F93CF93DF93EC0161157105A9F0888169
:1006900099816130710591F08B012296EE24E394EB
:1006A000F12C699179910E94FD022FEFE21AF20A72
:1006B000E016F106B0F302C080E090E0DF91CF9148
:1006C0001F910F91FF90EF900895EF92FF920F937B
:1006D0001F93CF93DF93FC0101900020E9F731973E
:1006E000E81BF90B9A0121503109E217F307C0F01A
:1006F0007A018B01EC01CA01861B970B01960E94BF
:10070000F409FE01E00FF11FDC01081B190B9D012C
:10071000200F311F2E153F0528F421912D93F7CF7F
:1007200080E090E0DF91CF911F910F91FF90EF90CB
:1007300008950C946503AF92BF92CF92DF92EF922F
:10074000FF920F931F93CF93DF936115710581057E
:10075000910559F16B017C01FF92EF92DF926F934B
:1007600000E111E01F930F931F921F921F921F929F
:100770000E94ED0B01965C010E94F409EC01FF92CE
:10078000EF92DF92CF921F930F93BF92AF92DF93BE
:10079000CF930E94ED0B8DB79EB744960FB6F89499
:1007A0009EBF0FBE8DBFCE0102C08EE091E0DF91F3
:1007B000CF911F910F91FF90EF90DF90CF90BF905E
:1007C000AF9008952F923F924F925F926F927F92D7
:1007D0008F929F92AF92BF92CF92DF92EF92FF9251
:1007E0000F931F93CF93DF9300D000D000D0CDB7ED
:1007F000DEB79A8389832A013B010B831C832D83F7
:100800003E838091760290917702019690937702D1
:10081000809376021CE1189FB001199F700D11247E
:1008200080918702909188020E94150B9093880214
:10083000809387022090760230907702129D90017B
:10084000139D300D112489010C511109080F191F36
:100850000E946600E981FA81D8011196FC93EE931B
:1008600012964D925D926D927C9215979101215056
:10087000310917963C932E931697F801608771877C
:10088000828793878B819C81AD81BE818487958788
:10089000A687B787C08AD18AE28AF38A148A158A22
:1008A000168A178A808E918EA28EB38E26960FB6E8
:1008B000F894DEBF0FBECDBFDF91CF911F910F9196
:1008C000FF90EF90DF90CF90BF90AF909F908F9070
:1008D0007F906F905F904F903F902F900895EF9290
:1008E000FF920F931F93CF93DF93C0917602D09125
:1008F0007702C230D10548F4109288021092870224
:1009000010927702109276024CC07C012CE12C9F51
:10091000C0012D9F900D11244C970E94F4098C0169
:10092000AC0120E030E080E090E021978C179D073B
:10093000B0F4E0918702F0918802E20FF31F8E1568
:100940009F050CF07C966CE1DA0101900D926A959E
:10095000E1F70196245E3F4F445E5F4FE7CFD093AF
:100960007702C09376028CE1282F2C9FC0012D9F27
:10097000900D11240E94F4099093880280938702BD
:1009800020E030E04CE1F801DC0101900D924A9545
:10099000E1F72F5F3F4F045E1F4F4C962C173D072A
:1009A00089F7DF91CF911F910F91FF90EF900895FC
:1009B0002F923F924F925F926F927F928F929F926F
:1009C000AF92BF92CF92DF92EF92FF920F931F935D
:1009D000CF93DF93CDB7DEB7AA970FB6F894DEBFFB
:1009E0000FBECDBF8091870290918802892B59F06C
:1009F0008091760290917702892B29F0212C312C5D
:100A000000E010E0AEC0AA960FB6F894DEBF0FBEAD
:100A1000CDBFDF91CF911F910F91FF90EF90DF90AD
:100A2000CF90BF90AF909F908F907F906F905F908E
:100A30004F903F902F900C94660680918702909182
:100A40008802820D931D2CE1FC01DE0111960190BC
:100A50000D922A95E1F7DC010D90BC91A02DBE8F7F
:100A6000AD8FFC0180849184A284B384C484D58436
:100A7000E684F784CBA2DCA2EDA2FEA2C088D188D6
:100A8000E288F388CF8ED8A2E9A2FAA244885588DA
:100A900066887788C08CD18CE28CF38CCFA2D8A6E4
:100AA000E9A6FAA60E94660041145104610471048B
:100AB00009F060C0DC01CB01CBA0DCA0EDA0FEA062
:100AC0008C199D09AE09BF0988159905AA05BB05B2
:100AD00008F492C00E9466066B817C818D819E81A4
:100AE000ED8DFE8D099581116CC00E9466060E94F5
:100AF0006600A0918702B0918802A20DB31D1097E5
:100B000059F1ED8CFE8CFA82E98289869A86AB8651
:100B1000BC86CBA0DCA0EDA0FEA0CD86DE86EF8655
:100B2000F88ACF8CD8A0E9A0FAA0C98ADA8AEB8A21
:100B3000FC8A6D8B7E8B8F8B988FCFA0D8A4E9A475
:100B4000FAA4C98EDA8EEB8EFC8E8CE1FE01319612
:100B500001900D928A95E1F70F5F1F4F2CE1220E55
:100B6000311C80917602909177020817190708F4DA
:100B700064CF49C09B01AC01CF8CD8A0E9A0FAA0FA
:100B80002C193D094E095F09241535054605570501
:100B900008F0A0CF2FA138A549A55AA5280D391DC9
:100BA0004A1D5B1D621773078407950748F1CFA0A4
:100BB000D8A4E9A4FAA4CD28CE28CF2809F10E9410
:100BC0006606C801AA960FB6F894DEBF0FBECDBF69
:100BD000DF91CF911F910F91FF90EF90DF90CF9019
:100BE000BF90AF909F908F907F906F905F904F904D
:100BF0003F902F900C946F0460E070E0CB0179CFB0
:100C0000C301B20176CFAA960FB6F894DEBF0FBE2D
:100C1000CDBFDF91CF911F910F91FF90EF90DF90AB
:100C2000CF90BF90AF909F908F907F906F905F908C
:100C30004F903F902F9008951F93CF93DF93182FDD
:100C4000EB0190E08930910528F4FC01EC5CFF4F4A
:100C50000C940A0885E792E022C00E9466000E9478
:100C60009B03BC018EEB91E00E94FD0260EC71E001
:100C70000E94FD0214C086E891E011C08EE891E068
:100C80000EC086E991E00BC08FE991E008C08BEAC5
:100C900091E005C085EB91E002C08DE791E0BE01D7
:100CA0000E94FD02EC01123029F40E94660688239E
:100CB00049F002C0123030F4CE01DF91CF911F9184
:100CC0000C94CC01DF91CF911F910895809178020F
:100CD00008958093780208950E94E40B21E0892B07
:100CE00009F020E0822F0895BC0180910C019091C1
:100CF0000D010E94FD020C94E401CF93DF93EC01FF
:100D000088819981FC0101900020E9F731979F01CA
:100D1000281B390BFC0160E070E06217730731F0AB
:100D20004191403229F46F5F7F4FF7CF6FEF7FEF34
:100D3000A90141505109FC01E20FF31F2291203219
:100D400049F04F5F5F4F0E94990399838883DF9139
:100D5000CF91089541505109F1CF4F925F926F9218
:100D60007F928F929F92AF92BF92CF92DF92EF923B
:100D7000FF920F931F93CF93DF936C018B017A0146
:100D80004C01612C712CA12CB12C512C4424439486
:100D9000E60109900020E9F72197CC19DD096C16CE
:100DA0007D0608F06EC0F40181914F01803221F080
:100DB0008232A9F5542461C0511031C0611471040C
:100DC00071F1F701808191819C012F5F3F4F318349
:100DD00020830296232B49F0BC01660F771FF80190
:100DE000808191810E94150B02C00E94F409F801D4
:100DF00091838083F701C081D181C150D048CC0F4D
:100E0000DD1FC00FD11FA301B501C6010E946503FC
:100E1000998388835301FFEFAF1ABF0A2EC0CE011A
:100E200002976816790649F5F701808191819C0146
:100E30002F5F3F4F318320830296232B39F0BC0173
:100E4000F801808191810E94150B02C00E94F40973
:100E5000F80191838083F7018081918181509048CE
:100E6000880F991F080F191FAE01B501C6010E9416
:100E70006503F8019183808304C0FFEF6F1A7F0A36
:100E800087CFDF91CF911F910F91FF90EF90DF906F
:100E9000CF90BF90AF909F908F907F906F905F901A
:100EA0004F900895CF92DF92EF92FF920F931F938E
:100EB000CF93DF9300D0CDB7DEB78C010E947D06C3
:100EC0001A821982AE014F5F5F4F60E070E0F80157
:100ED000808191810E94AD06C12CD12CE12CF12C96
:100EE00089819A81E816F90650F4F6018191919171
:100EF0006F010E94E401FFEFEF1AFF0AF1CFF80142
:100F00000081118165EC71E0C8010E946C068823A4
:100F100039F08AEC91E00E94E40187EE91E010C084
:100F200065E772E0C8010E946C06811104C0F801F7
:100F30008081811103C00E94ED0104C088E292E02B
:100F40000E94E4010F900F90DF91CF911F910F91BC
:100F5000FF90EF90DF90CF9008950E94ED01809177
:100F60000C0190910D010C94E9010E94C6018823A7
:100F700009F44FC00E94F001883011F08F37D9F486
:100F80008091790290917A02892B99F088E00E94F1
:100F9000EB0180E20E94EB0188E00E94EB0180916E
:100FA000790290917A02019790937A028093790264
:100FB000089587E018C08A30C1F08D30B1F02091DB
:100FC000790230917A022F5F3F4F30937A0220935B
:100FD00079022091060130910701280F311D3093CD
:100FE0000701209306010C94EB0186E091E00E943A
:100FF000520785E792E090930701809306011092D3
:101000007A021092790280910C0190910D010C945A
:10101000E9010895EE0FFF1F0590F491E02D09946A
:101020000E941B08A59F900DB49F900DA49F800D5A
:10103000911D11240895A29FB001B39FC001A39FE9
:10104000700D811D1124911DB29F700D811D112401
:10105000911D08950E940D0908F481E008950E94F1
:1010600043080C9448090E94410958F00E943A092B
:1010700040F029F45F3F29F00C94310951110C9490
:101080007C090C9437090E94590968F39923B1F33C
:10109000552391F3951B550BBB27AA27621773079E
:1010A000840738F09F5F5F4F220F331F441FAA1F32
:1010B000A9F335D00E2E3AF0E0E832D091505040EE
:1010C000E695001CCAF72BD0FE2F29D0660F771F9C
:1010D000881FBB1F261737074807AB07B0E809F082
:1010E000BB0B802DBF01FF2793585F4F3AF09E3F07
:1010F000510578F00C9431090C947C095F3FE4F3BE
:10110000983ED4F3869577956795B795F7959F5F49
:10111000C9F7880F911D9695879597F90895E1E095
:10112000660F771F881FBB1F621773078407BA07F4
:1011300020F0621B730B840BBA0BEE1F88F7E0954F
:1011400008950E94610988F09F5798F0B92F992758
:10115000B751B0F0E1F0660F771F881F991F1AF0A2
:10116000BA95C9F714C0B13091F00E947B09B1E083
:1011700008950C947B09672F782F8827B85F39F082
:10118000B93FCCF3869577956795B395D9F73EF43B
:1011900090958095709561957F4F8F4F9F4F0895E3
:1011A000E89409C097FB3EF4909580957095619501
:1011B0007F4F8F4F9F4F9923A9F0F92F96E9BB27B7
:1011C0009395F695879577956795B795F111F8CF33
:1011D000FAF4BB0F11F460FF1BC06F5F7F4F8F4F9E
:1011E0009F4F16C0882311F096E911C0772321F094
:1011F0009EE8872F762F05C0662371F096E8862F2C
:1012000070E060E02AF09A95660F771F881FDAF782
:10121000880F9695879597F90895990F0008550FAF
:10122000AA0BE0E8FEEF16161706E807F907C0F06C
:1012300012161306E407F50798F0621B730B840B74
:10124000950B39F40A2661F0232B242B252B21F44E
:1012500008950A2609F4A140A6958FEF811D811DEE
:10126000089597F99F6780E870E060E008959FEF28
:1012700080EC089500240A9416161706180609062D
:10128000089500240A9412161306140605060895FC
:10129000092E0394000C11F4882352F0BB0F40F484
:1012A000BF2B11F460FF04C06F5F7F4F8F4F9F4FC4
:1012B000089557FD9058440F551F59F05F3F71F046
:1012C0004795880F97FB991F61F09F3F79F08795AD
:1012D0000895121613061406551FF2CF4695F1DF36
:1012E00008C0161617061806991FF1CF86957105C6
:1012F000610508940895E894BB2766277727CB01FA
:1013000097F908950E940D0908F48FEF08950E943F
:101310009A090C9448090E943A0938F00E94410940
:1013200020F0952311F00C9431090C943709112405
:101330000C947C090E94590970F3959FC1F3950F95
:1013400050E0551F629FF001729FBB27F00DB11D49
:10135000639FAA27F00DB11DAA1F649F6627B00DD9
:10136000A11D661F829F2227B00DA11D621F739FC2
:10137000B00DA11D621F839FA00D611D221F749FD0
:101380003327A00D611D231F849F600D211D822F17
:10139000762F6A2F11249F5750409AF0F1F088233E
:1013A0004AF0EE0FFF1FBB1F661F771F881F91506B
:1013B0005040A9F79E3F510580F00C9431090C94E0
:1013C0007C095F3FE4F3983ED4F386957795679563
:1013D000B795F795E7959F5FC1F7FE2B880F911D95
:1013E0009695879597F908950F931F93CF93DF9361
:1013F0008230910510F482E090E0E0918B02F09150
:101400008C0220E030E0A0E0B0E0309719F140819C
:1014100051810281138148175907C8F08417950735
:1014200069F4109731F012960C93129713961C934F
:1014300027C000938B0210938C0222C02115310526
:1014400019F04217530718F49A01BD01EF01DF01AB
:10145000F801DBCF21153105F9F0281B390B2430B9
:10146000310580F48A819B816115710521F0FB01B2
:101470009383828304C090938C0280938B02FE013D
:10148000329644C0FE01E20FF31F819391932250E4
:101490003109398328833AC02091890230918A0228
:1014A000232B41F4209102013091030130938A02F1
:1014B000209389022091000130910101211531050D
:1014C00041F42DB73EB74091040150910501241B12
:1014D000350BE0918902F0918A02E217F307A0F43C
:1014E0002E1B3F0B2817390778F0AC014E5F5F4F7A
:1014F0002417350748F04E0F5F1F50938A02409320
:1015000089028193919302C0E0E0F0E0CF01DF9186
:10151000CF911F910F910895CF93DF93009709F416
:1015200081C0FC01329713821282A0918B02B0918C
:101530008C02109781F420813181820F931F2091BA
:10154000890230918A022817390751F5F0938A02EF
:10155000E093890267C0ED0120E030E0CE17DF079D
:1015600040F44A815B819E0141155105F1F0EA0189
:10157000F5CFD383C28340815181840F951FC81753
:10158000D90759F488819981840F951F0296918318
:1015900080838A819B81938382832115310529F47D
:1015A000F0938C02E0938B023DC0E901FB83EA8358
:1015B00049915991C40FD51FEC17FD0761F4808143
:1015C0009181840F951F0296E90199838883828116
:1015D00093819B838A83E0E0F0E012968D919C9149
:1015E0001397009719F0FD01DC01F7CF8D919C91C5
:1015F00011979D012E5F3F4F820F931F209189020B
:1016000030918A022817390769F4309729F410922B
:101610008C0210928B0202C013821282B0938A0253
:10162000A0938902DF91CF910895A0E0B0E0EBE1B3
:10163000FBE00C94B20EEC01009721F4CB010E9468
:10164000F409B4C0FC01E60FF71F9C0122503109D8
:10165000E217F30708F4A8C0D9010D911C91119766
:1016600006171707B0F00530110508F49BC0C80134
:1016700004978617970708F495C002501109061BB6
:10168000170B019311936D937C93CF010E948C0AE9
:1016900089C05B01A01AB10A4C01800E911EA09175
:1016A0008B02B0918C02612C712CE12CF12C1097E3
:1016B00009F446C08D919C911197A815B905B1F513
:1016C0006C0142E0C40ED11CCA14DB0478F14C0159
:1016D0008A189B08640142E0C40ED11C1296BC908B
:1016E00012971396AC91B5E0CB16D10440F0B282BC
:1016F000A38391828082D9016D937C9309C00E5F90
:101700001F4F800F911FF90191838083EB2DFA2FDA
:10171000E114F10431F0D7011396FC93EE93129784
:1017200041C0F0938C02E0938B023CC068167906AE
:1017300008F43C017D0112960D90BC91A02DB7CF0D
:101740008091890290918A0288169906E1F46616C2
:101750007706C8F48091000190910101009741F44F
:101760008DB79EB74091040150910501841B950BE4
:10177000E817F907C8F4F0938A02E0938902F901A7
:10178000718360830FC0CB010E94F4097C01009734
:1017900059F0A801BE010E94DB0BCE010E948C0A09
:1017A000C70104C0CE0102C080E090E0CDB7DEB733
:1017B000EEE00C94CE0EFB01DC0102C001900D9214
:1017C00041505040D8F70895FB01DC018D91019004
:1017D00080190110D9F3990B0895AEE0B0E0E3EF62
:1017E000FBE00C94BC0E0D891E898F89988D26E034
:1017F0002C831A83098397FF02C080E090E8019749
:101800009E838D83AE01455E5F4F698D7A8DCE01DB
:1018100001960E941D0C4D815E8157FD0AC02F81EB
:101820003885421753070CF49A01F801E20FF31FB1
:1018300010822E96E4E00C94D80EABE0B0E0E3E228
:10184000FCE00C94AE0E6C017B018A01FC01178256
:101850001682838181FFCCC1CE0101963C01F60145
:101860009381F70193FD859193FF81917F018823F7
:1018700009F4BAC1853239F493FD859193FF8191C2
:101880007F01853229F4B60190E00E94140EE7CF63
:10189000912C212C312CFFE1F315D8F08B3279F00B
:1018A00038F4803279F08332A1F4232D20611DC0F9
:1018B0008D3261F0803369F4232D216016C0832DB1
:1018C0008260382EE32DE4603E2E2AC0F32DF860AE
:1018D0001DC037FC2DC020ED280F2A3040F08E327D
:1018E000B9F436FC81C1232D2064322E19C036FE96
:1018F00006C08AE0989E200D1124922E11C0EAE0C5
:101900002E9E200D1124222EF32DF0623F2E08C0B2
:101910008C3621F4832D8068382E02C0883641F43D
:10192000F70193FD859193FF81917F018111B3CFE1
:10193000982F9F7D9554933028F40C5F1F4F9FE3A1
:1019400099830DC0833631F0833771F0833509F008
:1019500059C021C0F801808189830E5F1F4F882400
:101960008394912C530113C02801F2E04F0E511CB7
:10197000F801A080B18036FE03C0692D70E002C07E
:101980006FEF7FEFC5010E94090E4C018201F32D1C
:10199000FF773F2E16C0280122E0420E511CF801AD
:1019A000A080B18036FE03C0692D70E002C06FEFE9
:1019B0007FEFC5010E94FE0D4C01F32DF0683F2E14
:1019C000820133FC1BC0822D90E088169906B0F48A
:1019D000B60180E290E00E94140E2A94F4CFF50143
:1019E00037FC859137FE81915F01B60190E00E943E
:1019F000140E21102A9421E0821A91088114910476
:101A000071F7E8C0843611F0893641F5F80137FEE8
:101A100007C060817181828193810C5F1F4F08C074
:101A200060817181072E000C880B990B0E5F1F4F90
:101A3000F32DFF763F2E97FF09C090958095709506
:101A400061957F4F8F4F9F4FF0683F2E2AE030E027
:101A5000A3010E94500E882E861845C0853731F4A8
:101A6000232D2F7EB22E2AE030E025C0932D997FC2
:101A7000B92E8F36C1F018F4883579F0B5C08037AB
:101A800019F0883721F0B0C0E92FE061BE2EB4FE16
:101A90000DC0FB2DF460BF2E09C034FE0AC0292FF3
:101AA0002660B22E06C028E030E005C020E130E01C
:101AB00002C020E132E0F801B7FE07C06081718109
:101AC000828193810C5F1F4F06C06081718180E02D
:101AD00090E00E5F1F4FA3010E94500E882E8618C3
:101AE000FB2DFF773F2E36FE0DC0232D2E7FA22E1D
:101AF000891458F434FE0BC032FC09C0832D8E7E4D
:101B0000A82E05C0B82CA32C03C0B82C01C0B92C3A
:101B1000A4FE0FC0FE01E80DF11D8081803321F489
:101B20009A2D997EA92E09C0A2FE06C0B394B39443
:101B300004C08A2D867809F0B394A3FC11C0A0FEDE
:101B400006C0B21488F4280C922C9B180EC0B21454
:101B500060F4B60180E290E00E94140EB394F7CFD7
:101B6000B21418F42B1802C0982C212CA4FE10C01B
:101B7000B60180E390E00E94140EA2FE17C0A1FC03
:101B800003C088E790E002C088E590E0B6010CC091
:101B90008A2D867859F0A1FE02C08BE201C080E256
:101BA000A7FC8DE2B60190E00E94140E891438F46F
:101BB000B60180E390E00E94140E9A94F7CF8A94C5
:101BC000F301E80DF11D8081B60190E00E94140E32
:101BD0008110F5CF222009F442CEB60180E290E0D8
:101BE0000E94140E2A94F6CFF6018681978102C0D6
:101BF0008FEF9FEF2B96E2E10C94CA0EFC0105904B
:101C0000615070400110D8F7809590958E0F9F1FFE
:101C10000895FC016150704001900110D8F7809543
:101C200090958E0F9F1F08950F931F93CF93DF936F
:101C3000FB01238121FD03C08FEF9FEF2CC022FF0A
:101C400016C046815781248135814217530744F4D9
:101C5000A081B1819D012F5F3F4F318320838C9301
:101C6000268137812F5F3F4F3783268314C08B0136
:101C7000EC01FB010084F185E02D0995892BE1F64B
:101C8000D80116968D919C911797019617969C9363
:101C90008E931697CE01DF91CF911F910F910895EA
:101CA000FA01AA27283051F1203181F1E8946F938D
:101CB0006E7F6E5F7F4F8F4F9F4FAF4FB1E03ED033
:101CC000B4E03CD0670F781F891F9A1FA11D680FD1
:101CD000791F8A1F911DA11D6A0F711D811D911D04
:101CE000A11D20D009F468943F912AE0269F112479
:101CF0003019305D3193DEF6CF010895462F4770DD
:101D0000405D4193B3E00FD0C9F7F6CF462F4F7037
:101D1000405D4A3318F0495D31FD4052419302D095
:101D2000A9F7EACFB4E0A69597958795779567953B
:101D3000BA95C9F700976105710508959B01AC013B
:101D40000A2E06945795479537952795BA95C9F762
:101D5000620F731F841F951FA01D08952F923F923D
:101D60004F925F926F927F928F929F92AF92BF92AB
:101D7000CF92DF92EF92FF920F931F93CF93DF9357
:101D8000CDB7DEB7CA1BDB0B0FB6F894DEBF0FBEB4
:101D9000CDBF09942A88398848885F846E847D8401
:101DA0008C849B84AA84B984C884DF80EE80FD8003
:101DB0000C811B81AA81B981CE0FD11D0FB6F89479
:0E1DC000DEBF0FBECDBFED010895F894FFCF3A
:101DCE0000008D0220007502560261026A02300088
:101DDE00256C7500496E6974696174696E67204877
:101DEE00414C2073797374656D20746573742E2E57
:101DFE002E0044656C6179207769746820743D000B
:101E0E006D73207969656C6465642074696D6520F5
:101E1E006D69736D61746368206F6620005465731D
:101E2E0074696E67207061737365642E00546573F8
:101E3E0074696E67206661696C65642E005B44454B
:101E4E004255475D20005B494E464F5D20005B5773
:101E5E0041524E5D20005B4552524F525D20005B59
:101E6E00435249544943414C5D20005B534556450E
:101E7E0052455D20005B464154414C5D20005B00A5
:101E8E006D735D200068656C70003C2D2D2D20411A
:101E9E007661696C61626C6520636F6D6D616E64F5
:101EAE0073202D2D2D3E0068656C70202020202083
:101EBE002020202020202020202020202020202014
:101ECE002020202020202020202020202020202004
:101EDE00202020202020202D2073686F772074680A
:101EEE006973207061676500556E6B6E6F776E203B
:101EFE00636F6D6D616E642E205479706520276856
:101F0E00656C702720666F7220612068656C70208A
:101F1E00706167652E005B5741544348444F475DDF
:101F2E00005B524553454E445D005B535953544537
:061F3E004D5D203E200075
:00000001FF
